:100000000C9434000C943E000C943E000C943E0082
:100010000C943E000C943E000C943E000C943E0068
:100020000C943E000C943E000C943E000C943E0058
:100030000C943E000C943E000C943E000C943E0048
:100040000C943E000C943E000C943E000C943E0038
:100050000C943E000C943E000C943E000C943E0028
:100060000C943E000C943E0011241FBECFEFD8E04C
:10007000DEBFCDBF0E9440000C948F000C940000A6
:100080008CE38AB914B838C0642F042E000C770BA7
:1000900060957095272F221F2227221F30E01BB862
:1000A0009BB19BB99BB19BB99BB1220F331F220F10
:1000B000331F292B2BB92FEF33ED90E32150304024
:1000C0009040E1F700C0000047FD21C090E01BB860
:1000D0002BB12BB92BB12BB92BB1880F991F880FDE
:1000E000991F822B8BB92FEF33ED80E321503040E5
:1000F0008040E1F700C0000099B149B183B181703F
:10010000592F507496FDC0CF282F30E0C8CF31E072
:1001100020E0511101C030E0832F922FD8CFF89406
:02012000FFCF0F
:00000001FF
