:100000000C9434000C943E000C943E000C943E0082
:100010000C943E000C943E000C943E000C943E0068
:100020000C943E000C943E000C943E000C943E0058
:100030000C943E000C943E000C943E000C943E0048
:100040000C943E000C943E000C943E000C943E0038
:100050000C943E000C943E000C943E000C943E0028
:100060000C943E000C943E0011241FBECFEFD8E04C
:10007000DEBFCDBF0E9440000C946E000C940000C7
:100080004CE34AB940E244B981111EC0911122C02B
:10009000222311F1880F880F1BB89BB19BB99BB12C
:1000A0009BB99BB1892B8BB989B186FB882780F9D5
:1000B00099B1292F221F2227221F93B1917033B1AA
:1000C00036953170882311F3992311F3222321F0FF
:1000D000311102C084E0E0CF80E0DECFF894FFCFA2
:00000001FF
