:100000000C9434000C943E000C943E000C943E0082
:100010000C943E000C943E000C943E000C943E0068
:100020000C943E000C943E000C943E000C943E0058
:100030000C943E000C943E000C943E000C943E0048
:100040000C943E000C943E000C943E000C943E0038
:100050000C943E000C943E000C943E000C943E0028
:100060000C943E000C943E0011241FBECFEFD8E04C
:10007000DEBFCDBF0E9440000C946A000C940000CB
:100080004CE34AB940E244B941E09923E9F0211137
:1000900003C031111BC0811184E01BB89BB19BB917
:1000A0009BB19BB99BB1892B8BB989B186FB882702
:1000B00080F999B1991F9927991F23B1217033B104
:1000C000369531709111E3CF80E0E7CF8427880F18
:0800D000880FE3CFF894FFCF85
:00000001FF
